:10000000C0140020513D00005D7B0000093D000050
:10001000093D0000093D0000093D0000000000000E
:10002000000000000000000000000000893900000E
:10003000093D00000000000031390000093D0000CA
:10004000753A0000753A0000753A0000753A0000F4
:10005000753A0000753A0000753A0000753A0000E4
:10006000753A0000753A0000753A0000753A0000D4
:10007000753A0000753A0000753A0000753A0000C4
:10008000753A0000753A0000753A0000753A0000B4
:10009000753A0000753A0000753A0000753A0000A4
:1000A000753A0000753A0000753A0000753A000094
:1000B000753A0000753A0000753A0000753A000084
:1000C000753A0000753A0000753A0000753A000074
:1000D000753A0000753A0000753A0000753A000064
:1000E000753A0000753A0000753A0000753A000054
:1000F000753A0000753A0000753A0000753A000044
:1001000081F0004102E000BF83F0004330B54FEAC8
:1001100041044FEA430594EA050F08BF90EA020F35
:100120001FBF54EA000C55EA020C7FEA645C7FEAC8
:10013000655C00F0E2804FEA5454D4EB5555B8BFEB
:100140006D420CDD2C4480EA020281EA030382EA5C
:10015000000083EA010180EA020281EA0303362DEE
:1001600088BF30BD11F0004F4FEA01314FF4801CC1
:100170004CEA113102D0404261EB410113F0004FD3
:100180004FEA03334CEA133302D0524263EB43038A
:1001900094EA050F00F0A780A4F10104D5F1200E28
:1001A0000DDB02FA0EFC22FA05F2801841F1000183
:1001B00003FA0EF2801843FA05F359410EE0A5F157
:1001C00020050EF1200E012A03FA0EFC28BF4CF088
:1001D000020C43FA05F3C01851EBE37101F000453E
:1001E00007D54FF0000EDCF1000C7EEB00006EEB4B
:1001F0000101B1F5801F1BD3B1F5001F0CD34908D5
:100200005FEA30004FEA3C0C04F101044FEA44522B
:1002100012F5800F80F09A80BCF1004F08BF5FEAB2
:10022000500C50F1000041EB045141EA050130BD92
:100230005FEA4C0C404141EB0101013C28BFB1F5A4
:10024000801FE9D291F0000F04BF01460020B1FAEF
:1002500081F308BF2033A3F10B03B3F120020CDAC2
:100260000C3208DD02F1140CC2F10C0201FA0CF0A0
:1002700021FA02F10CE002F11402D8BFC2F1200C05
:1002800001FA02F120FA0CFCDCBF41EA0C019040BB
:10029000E41AA2BF01EB0451294330BD6FEA040404
:1002A0001F3C1CDA0C340EDC04F11404C4F12002EF
:1002B00020FA04F001FA02F340EA030021FA04F301
:1002C00045EA030130BDC4F10C04C4F1200220FA58
:1002D00002F001FA04F340EA0300294630BD21FA96
:1002E00004F0294630BD94F0000F83F4801306BF5C
:1002F00081F480110134013D4EE77FEA645C18BF50
:100300007FEA655C29D094EA050F08BF90EA020FE6
:1003100005D054EA000C04BF1946104630BD91EADE
:10032000030F1EBF0021002030BD5FEA545C05D1E1
:100330004000494128BF41F0004130BD14F5800420
:100340003CBF01F5801130BD01F0004545F0FE4194
:1003500041F470014FF0000030BD7FEA645C1ABFC9
:10036000194610467FEA655C1CBF0B46024650EA00
:10037000013406BF52EA033591EA030F41F400212C
:1003800030BD00BF90F0000F04BF0021704730B5B2
:100390004FF4806404F132044FF000054FF0000187
:1003A00050E700BF90F0000F04BF0021704730B548
:1003B0004FF4806404F1320410F0004548BF40421D
:1003C0004FF000013EE700BF42004FEAE2014FEA72
:1003D00031014FEA02701FBF12F07F4393F07F4F4D
:1003E00081F06051704732F07F4208BF704793F050
:1003F0007F4F04BF41F40021704730B54FF4607463
:1004000001F0004521F000411CE700BF50EA010265
:1004100008BF704730B54FF000050AE050EA01020E
:1004200008BF704730B511F0004502D5404261EB7E
:1004300041014FF4806404F132045FEA915C3FF4BF
:10044000D8AE4FF003025FEADC0C18BF03325FEA5C
:10045000DC0C18BF033202EBDC02C2F1200300FA0D
:1004600003FC20FA02F001FA03FE40EA0E0021FA32
:1004700002F11444BDE600BF70B54FF0FF0C4CF420
:10048000E06C1CEA11541DBF1CEA135594EA0C0FD2
:1004900095EA0C0F00F0DEF82C4481EA030621EA0D
:1004A0004C5123EA4C5350EA013518BF52EA033548
:1004B00041F4801143F4801338D0A0FB02CE4FF0FA
:1004C0000005E1FB02E506F00042E0FB03E54FF02A
:1004D0000006E1FB03569CF0000F18BF4EF0010E22
:1004E000A4F1FF04B6F5007F64F5407404D25FEA1E
:1004F0004E0E6D4146EB060642EAC62141EA5551D1
:100500004FEAC52040EA5E504FEACE2EB4F1FD0C12
:1005100088BFBCF5E06F1ED8BEF1004F08BF5FEA90
:10052000500E50F1000041EB045170BD06F0004642
:1005300046EA010140EA020081EA0301B4EB5C04EF
:10054000C2BFD4EB0C0541EA045170BD41F48011E7
:100550004FF0000E013C00F3AB8014F1360FDEBF0C
:10056000002001F0004170BDC4F10004203C35DAE8
:100570000C341BDC04F11404C4F1200500FA05F36B
:1005800020FA04F001FA05F240EA020001F000420C
:1005900021F0004110EBD37021FA04F642EB060182
:1005A0005EEA430E08BF20EAD37070BDC4F10C04AC
:1005B000C4F1200500FA04F320FA05F001FA04F270
:1005C00040EA020001F0004110EBD37041F100015C
:1005D0005EEA430E08BF20EAD37070BDC4F1200567
:1005E00000FA05F24EEA020E20FA04F301FA05F2CF
:1005F00043EA020321FA04F001F0004121FA04F277
:1006000020EA020000EBD3705EEA430E08BF20EA46
:10061000D37070BD94F0000F0FD101F00046400080
:1006200041EB010111F4801F08BF013CF7D041EA02
:10063000060195F0000F18BF704703F00046520006
:1006400043EB030313F4801F08BF013DF7D043EAD7
:100650000603704794EA0C0F0CEA135518BF95EA8D
:100660000C0F0CD050EA410618BF52EA4306D1D114
:1006700081EA030101F000414FF0000070BD50EA33
:10068000410606BF1046194652EA430619D094EABD
:100690000C0F02D150EA013613D195EA0C0F05D1A7
:1006A00052EA03361CBF104619460AD181EA0301FB
:1006B00001F0004141F0FE4141F470014FF00000B3
:1006C00070BD41F0FE4141F4780170BD70B54FF04E
:1006D000FF0C4CF4E06C1CEA11541DBF1CEA1355CE
:1006E00094EA0C0F95EA0C0F00F0A7F8A4EB0504B0
:1006F00081EA030E52EA03354FEA013100F08880A7
:100700004FEA03334FF0805545EA131343EA12636F
:100710004FEA022245EA111545EA10654FEA002624
:100720000EF000419D4208BF964244F1FD0404F5DD
:10073000407402D25B084FEA3202B61A65EB030539
:100740005B084FEA32024FF480104FF4002CB6EBF6
:10075000020E75EB030E22BFB61A754640EA0C0076
:100760005B084FEA3202B6EB020E75EB030E22BFB6
:10077000B61A754640EA5C005B084FEA3202B6EBF7
:10078000020E75EB030E22BFB61A754640EA9C00B6
:100790005B084FEA3202B6EB020E75EB030E22BF86
:1007A000B61A754640EADC0055EA060E18D04FEA44
:1007B000051545EA16754FEA06164FEAC30343EAE4
:1007C00052734FEAC2025FEA1C1CC0D111F4801FB1
:1007D0000BD141EA00014FF000004FF0004CB6E7AA
:1007E00011F4801F04BF01430020B4F1FD0C88BF49
:1007F000BCF5E06F3FF6AFAEB5EB030C04BFB6EB54
:10080000020C5FEA500C50F1000041EB045170BD46
:100810000EF0004E4EEA113114EB5C04C2BFD4EB73
:100820000C0541EA045170BD41F480114FF0000EF7
:10083000013C90E645EA060E8DE60CEA135594EA73
:100840000C0F08BF95EA0C0F3FF43BAF94EA0C0F76
:100850000AD150EA01347FF434AF95EA0C0F7FF4EB
:1008600025AF104619462CE795EA0C0F06D152EA3F
:1008700003353FF4FDAE1046194622E750EA410623
:1008800018BF52EA43067FF4C5AE50EA41047FF434
:100890000DAF52EA43057FF4EBAE12E74FEA410297
:1008A000B2F1E04324BFB3F5001CDCF1FE5C0DD9CE
:1008B00001F0004C4FEAC0024CEA5070B2F1004F18
:1008C00040EB830008BF20F00100704711F0804F1B
:1008D00021D113F13872BCBF01F00040704741F4E0
:1008E00080114FEA5252C2F11802C2F1200C10FAE4
:1008F0000CF320FA02F018BF40F001004FEAC123C8
:100900004FEAD32303FA0CFC40EA0C0023FA02F36B
:100910004FEA4303CCE77FEA625307D150EA013341
:100920001EBF4FF0FE4040F44000704701F0004011
:1009300040F0FE4040F40000704700BF80F00040EF
:1009400002E000BF81F0004142001FBF5FEA4103A7
:1009500092EA030F7FEA226C7FEA236C6AD04FEAA7
:100960001262D2EB1363C1BFD218414048404140EC
:10097000B8BF5B42192B88BF704710F0004F40F49E
:10098000000020F07F4018BF404211F0004F41F4BA
:10099000000121F07F4118BF494292EA030F3FD086
:1009A000A2F1010241FA03FC10EB0C00C3F1200399
:1009B00001FA03F100F0004302D5494260EB400028
:1009C000B0F5000F13D3B0F1807F06D340084FEA93
:1009D000310102F10102FE2A51D2B1F1004F40EB88
:1009E000C25008BF20F0010040EA030070474900F0
:1009F00040EB0000013A28BFB0F5000FEDD2B0FA8D
:100A000080FCACF1080CB2EB0C0200FA0CF0AABFAF
:100A100000EBC25052421843BCBFD040184370474D
:100A200092F0000F81F4000106BF80F40000013253
:100A3000013BB5E74FEA41037FEA226C18BF7FEA2A
:100A4000236C21D092EA030F04D092F0000F08BF6C
:100A50000846704790EA010F1CBF0020704712F053
:100A60007F4F04D1400028BF40F00040704712F192
:100A700000723CBF00F50000704700F0004343F0F7
:100A8000FE4040F4000070477FEA226216BF08462D
:100A90007FEA23630146420206BF5FEA412390EAF0
:100AA000010F40F4800070474FF0000304E000BFE6
:100AB00010F0004348BF40425FEA000C08BF704797
:100AC00043F0964301464FF000001CE050EA01025B
:100AD00008BF70474FF000030AE000BF50EA010270
:100AE00008BF704711F0004302D5404261EB41015D
:100AF0005FEA010C02BF84460146002043F0B64382
:100B000008BFA3F18053A3F50003BCFA8CF2083AA6
:100B1000A3EBC25310DB01FA02FC634400FA02FCAF
:100B2000C2F12002BCF1004F20FA02F243EB0200B6
:100B300008BF20F00100704702F1200201FA02FC18
:100B4000C2F1200250EA4C0021FA02F243EB02000B
:100B500008BF20EADC7070474FF0FF0C1CEAD0524F
:100B60001EBF1CEAD15392EA0C0F93EA0C0F6FD010
:100B70001A4480EA010C400218BF5FEA41211ED0EE
:100B80004FF0006343EA501043EA5111A0FB0131DA
:100B90000CF00040B1F5000F3EBF490041EAD371AF
:100BA0005B0040EA010062F17F02FD2A1DD8B3F12B
:100BB000004F40EBC25008BF20F00100704790F09A
:100BC000000F0CF0004C08BF49024CEA502040EAEC
:100BD00051207F3AC2BFD2F1FF0340EAC2507047B2
:100BE00040F400004FF00003013A5DDC12F1190FF0
:100BF000DCBF00F000407047C2F10002410021FA62
:100C000002F1C2F1200200FA02FC5FEA310040F179
:100C1000000053EA4C0308BF20EADC70704792F0F2
:100C2000000F00F0004C02BF400010F4000F013A2A
:100C3000F9D040EA0C0093F0000F01F0004C02BF25
:100C4000490011F4000F013BF9D041EA0C018FE794
:100C50000CEAD15392EA0C0F18BF93EA0C0F0AD09A
:100C600030F0004C18BF31F0004CD8D180EA0100C0
:100C700000F00040704790F0000F17BF90F0004F59
:100C8000084691F0000F91F0004F14D092EA0C0F3B
:100C900001D142020FD193EA0C0F03D14B0218BFCE
:100CA000084608D180EA010000F0004040F0FE4014
:100CB00040F40000704740F0FE4040F440007047B0
:100CC0004FF0FF0C1CEAD0521EBF1CEAD15392EA2F
:100CD0000C0F93EA0C0F69D0A2EB030280EA010C1F
:100CE00049024FEA402037D04FF0805343EA1111B8
:100CF00043EA10130CF000408B4238BF5B0042F116
:100D00007D024FF4000C8B4224BF5B1A40EA0C00BA
:100D1000B3EB510F24BFA3EB510340EA5C00B3EBEC
:100D2000910F24BFA3EB910340EA9C00B3EBD10FDA
:100D300024BFA3EBD10340EADC001B0118BF5FEA2C
:100D40001C1CE0D1FD2A3FF650AF8B4240EBC25055
:100D500008BF20F0010070470CF0004C4CEA502016
:100D60007F32C2BFD2F1FF0340EAC250704740F465
:100D700000004FF00003013A37E792F0000F00F057
:100D8000004C02BF400010F4000F013AF9D040EAD5
:100D90000C0093F0000F01F0004C02BF490011F469
:100DA000000F013BF9D041EA0C0195E70CEAD15361
:100DB00092EA0C0F08D142027FF47DAF93EA0C0F48
:100DC0007FF470AF084676E793EA0C0F04D14B022C
:100DD0003FF44CAF08466EE730F0004C18BF31F0DE
:100DE000004CCAD130F000427FF45CAF31F00043D8
:100DF0007FF43CAF5FE700BF42000ED2B2F1FE4F7E
:100E00000BD34FF09E03B3EB126209D44FEA0023D9
:100E100043F0004323FA02F070474FF000007047A0
:100E200012F1610F01D1420202D14FF0FF30704741
:100E30004FF00000704700BF53B94AB9002908BFFE
:100E400000281CBF4FF0FF314FF0FF3000F06CB9AD
:100E5000ADF1080C6DE904CE00F006F8DDF804E011
:100E6000DDE9022304B070472DE9F047089E0D46E6
:100E700004468E46002B40F082808A42174646D9AF
:100E8000B2FA82F24AB1C2F1200105FA02F320FA65
:100E900001F1974041EA030E94404FEA1748230CB2
:100EA000BEFBF8FCB9B208FB1CEE43EA0E430CFB98
:100EB00001F098420AD9FB180CF1FF3580F0168139
:100EC000984240F21381ACF1020C3B441B1AA4B2CD
:100ED000B3FBF8F008FB103344EA034400FB01F1D4
:100EE000A14209D93C1900F1FF3380F00181A142F0
:100EF00040F2FE8002383C44641A40EA0C40002173
:100F00001EB1D4400023C6E90043BDE8F08702B912
:100F1000FFDEB2FA82F2002A4FD1CB1B4FEA174E06
:100F20001FFA87F80121B3FBFEFC250C0EFB1C33D6
:100F300045EA034508FB0CF3AB4207D97D190CF1D8
:100F4000FF3002D2AB4200F2E7808446ED1AA3B232
:100F5000B5FBFEF00EFB105543EA054408FB00F814
:100F6000A04507D93C1900F1FF3302D2A04500F299
:100F7000D7801846A4EB080440EA0C40C0E78B4237
:100F800008D9002E00F0AF800021C6E90005084610
:100F9000BDE8F087B3FA83F100294BD1AB4202D30D
:100FA000824200F2B780841A65EB030301209E465B
:100FB000002EAAD0C6E9004EA7E7C2F1200C01FA24
:100FC00002F3974020FA0CF04FEA174E21FA0CFC7E
:100FD0001843BCFBFEF1050C0EFB11CC1FFA87F881
:100FE00045EA0C4501FB08F3AB4204FA02F409D9C7
:100FF0007D1901F1FF3C80F08B80AB4240F288808C
:1010000002393D44EB1A85B2B3FBFEF00EFB103300
:1010100045EA034500FB08F3AB4207D97D1900F10F
:10102000FF3C71D2AB426FD902383D44EB1A40EA23
:10103000014178E7C1F1200C8B4022FA0CF71F43E5
:1010400020FA0CF405FA01F34FEA174E25FA0CF5D5
:101050001C43230CB5FBFEF91FFA87F80EFB19554C
:1010600043EA054509FB08FAAA4502FA01F200FA2B
:1010700001F308D97D1909F1FF3047D2AA4545D9B6
:10108000A9F102093D44A5EB0A05A4B2B5FBFEF0A7
:101090000EFB105544EA054400FB08F8A04507D9AB
:1010A0003C1900F1FF352DD2A0452BD902383C4424
:1010B00040EA0940A4EB0804A0FB02894C45C6465F
:1010C0004D4619D316D05EB1B3EB0E0264EB0504A6
:1010D00004FA0CFCCA404CEA0202CC40C6E90024E7
:1010E0000021BDE8F087314630460EE7AC46EDE61C
:1010F000184601E74345E6D2B8EB020E69EB070557
:101100000138E0E72846D3E760468FE78146BAE733
:10111000614677E708464BE7ACF1020C3D4415E722
:1011200002383C4426E700BF704700BF4FF0FF3C49
:1011300006E000BF4FF0010C02E000BF4FF0010CD1
:101140004DF804CD4FEA410C7FEA6C5C4FEA430C4A
:1011500018BF7FEA6C5C1BD001B050EA410C0CBF99
:1011600052EA430C91EA030F02BF90EA020F0020FB
:10117000704710F1000F91EA030F58BF994208BF62
:1011800090422CBFD8176FEAE37040F0010070471F
:101190004FEA410C7FEA6C5C02D150EA013C07D176
:1011A0004FEA430C7FEA6C5CD6D152EA033CD3D0C1
:1011B0005DF8040B704700BF8446104662468C46BB
:1011C0001946634600E000BF01B5FFF7B7FF0028EE
:1011D00048BF10F1000F01BD4DF808EDFFF7F4FF17
:1011E0000CBF012000205DF808FB00BF4DF808EDA2
:1011F000FFF7EAFF34BF012000205DF808FB00BFC5
:101200004DF808EDFFF7E0FF94BF012000205DF8E6
:1012100008FB00BF4DF808EDFFF7CEFF94BF01209B
:1012200000205DF808FB00BF4DF808EDFFF7C4FF94
:1012300034BF012000205DF808FB00BF4FEA4102E7
:1012400012F5001215D211D56FF47873B3EB625218
:1012500012D94FEAC12343F0004343EA505311F03F
:10126000004F23FA02F018BF404270474FF00000D1
:10127000704750EA013005D111F0004008BF6FF00F
:10128000004070474FF00000704700BF034613F85E
:10129000012B002AFBD1181A01387047000000000A
:1012A0002DE9F04F8C4F21F00045BD428DB0144622
:1012B000064640F38680894A95428B4627DC002902
:1012C0007BA3D3E9002340F3B881FEF71DFF844BD5
:1012D0009D4206460F4600F08B8077A3D3E900239A
:1012E000FEF712FF02460B46C4E90023304639469A
:1012F000FEF70AFF70A3D3E90023FEF705FFC4E958
:1013000002014FF0010A50460DB0BDE8F08F754A5A
:10131000954240F38E80744A95425EDC4FEA255A2E
:10132000AAF2164AA5EB0A510F46FFF787FFFFF70F
:1013300039F8804689463046394642464B46CDE923
:101340000689FEF7E1FE694B0022FFF795F80F468C
:101350000646FFF773FF0546FFF724F802460B46E3
:1013600030463946CDE90823FEF7CEFE5F4B00221A
:10137000FFF782F802460B46CDE90A23002200233C
:10138000FFF72AFF002800F05681002D0CBF012333
:101390000223574A019202215246009106A8214693
:1013A00000F0CEFABBF1000F8246ACDA6268E36867
:1013B00002F1004203F10043C0F1000A6260E36001
:1013C000A1E74FF0000AC4E90001002200235046C3
:1013D000C4E902230DB0BDE8F08F02465B46FEF77C
:1013E00093FE4FF0000AC4E90201C4E900018AE754
:1013F00033A3D3E90023FEF787FE33A3D3E9002309
:1014000006460F46FEF780FE02460B46C4E900235F
:1014100030463946FEF778FE2BA3D3E90023FEF7CA
:1014200073FE4FF0010AC4E9020150460DB0BDE859
:10143000F08F06F095F926A3D3E9002306460F4660
:10144000FFF71AF82B4B0022FEF760FEFFF7F6FEBF
:101450008246FEF7A7FF16A3D3E9002380468946FC
:10146000CDE90489FFF708F802460B4630463946B5
:10147000FEF74AFE06460F4640464946B046B94684
:101480000DA3D3E90023CDE90289FEF7F5FFBAF1F8
:101490001F0F06460F4631DC174B0AF1FF3253F897
:1014A0002230AB422AD002460B46404649469EE0D7
:1014B00000004054FB21F93F3163621A61B4D03D12
:1014C0000000601A61B4D03D7370032E8A19A33BEB
:1014D00083C8C96D305FE43FFB21E93F7BD90240FF
:1014E000FB21F93FFB213941FFFFEF7F00007041F5
:1014F000309100000000E03FB09000003B46DDE985
:1015000002013246FEF700FEC1F30A53C3EB155346
:10151000102B894680464FEA25556CDD66A3D3E93A
:101520000023DDE90401FEF7A7FF06460F46024649
:101530000B46DDE90201FEF7E7FD8046894642469B
:101540004B46DDE90201FEF7DFFD32463B46FEF782
:10155000DBFD5BA3D3E9002306460F46DDE904016A
:10156000FEF78AFF32463B46FEF7CEFD0B460246AB
:1015700006460F4640464946CDE90289FEF7C4FDBE
:10158000C1F30A53ED1A312D8946804633DD4EA34F
:10159000D3E90023DDE90401FEF76EFFDDE9025621
:1015A00002460B468046894628463146FEF7ACFD8A
:1015B00002460B4628463146CDE90223FEF7A4FD3C
:1015C00042464B46FEF7A0FD41A3D3E90023064661
:1015D0000F46DDE90401FEF74FFF32463B46FEF7BA
:1015E00093FD06460F4602460B46DDE90201FEF773
:1015F0008BFD8046894642464B46C4E90023DDE91F
:101600000201FEF781FD32463B46FEF77DFDBBF150
:10161000000F02460B46C4E902230546BFF673AE2F
:1016200009F1004301F10041C4E90083C4E902511A
:10163000CAF1000A67E60323ABE6FEF767FD284B15
:101640009D4206460F4616D023A3D3E90023FEF79A
:101650005DFD02460B46C4E9002330463946FEF7DD
:1016600053FD1DA3D3E90023FEF750FD4FF0FF3AD1
:10167000C4E9020147E610A3D3E90023FEF746FDC3
:101680000FA3D3E9002306460F46FEF73FFD0246AF
:101690000B46C4E9002330463946FEF735FD08A362
:1016A000D3E90023FEF732FD4FF0FF3AC4E902010F
:1016B00029E600BFAFF300800000601A61B4D03D9E
:1016C0007370032E8A19A33B0000002E8A19A33BD6
:1016D000C14920259A837B393163621A61B4D03DB8
:1016E000FB21F93F000000002DE9F04D21F00047FB
:1016F00086B0B7F1795FCDE90023884606466DDAFA
:10170000FFF79CFD002800F0EF803246434630464C
:101710004146FEF7B1FE78A3D3E9002304460D4607
:10172000FEF7AAFE76A3D3E90023FEF7EFFC2246DC
:101730002B46FEF7A1FE74A3D3E90023FEF7E4FCD9
:1017400022462B46FEF798FE71A3D3E90023FEF74D
:10175000DDFC22462B46FEF78FFE6FA3D3E9002364
:10176000FEF7D2FC22462B46FEF786FE6CA3D3E999
:101770000023FEF7CBFC22462B46FEF77DFECDE98B
:101780000201694B002220462946FEF775FEDDE97D
:10179000022382468B4620462946FEF76DFE02460E
:1017A0000B461F46304641461646DDE90023FEF74C
:1017B00063FE02460B4630463946FEF7A5FC02465C
:1017C0000B4650465946FEF79FFC02460B4600204A
:1017D0005649FEF799FC06B0BDE8F08D02460B466F
:1017E000FEF74AFE44A3D3E9002304460D46FEF764
:1017F00043FE43A3D3E90023FEF788FC22462B4691
:10180000FEF73AFE40A3D3E90023FEF77DFC224613
:101810002B46FEF731FE3EA3D3E90023FEF776FC0C
:1018200022462B46FEF728FE3BA3D3E90023FEF712
:101830006BFC22462B46FEF71FFE39A3D3E900239B
:10184000FEF764FC2B462246FEF716FE384B9F42FD
:10185000CDE9020195DD374B9F423CDC4FF0000A99
:10186000A7F5001B314952465B460020FEF74CFCB1
:10187000CDE904012C4B002220462946FEF7FCFD51
:1018800052465B46FEF740FCDDE9022382468B466A
:1018900020462946FEF7F0FD02460B461F4630461D
:1018A00041461646DDE90023FEF7E6FD02460B46FB
:1018B00030463946FEF728FC02460B46504659464C
:1018C000FEF722FC02460B46DDE90401FEF71CFC94
:1018D00006B0BDE8F08D184BDFF860B00022CDE90E
:1018E00004234FF0000AC5E71049002006B0BDE808
:1018F000F08D00BFAFF30080D43888BEE9FAA8BDF0
:10190000C4B1B4BD9EEE213EAD529C804F7E923E4E
:101910009015CB19A001FA3E7751C1166CC1563F04
:101920004C5555555555A53F0000E03F0000F03F90
:101930003233D33F0000E93F0000E73F0000D23FD1
:101940002DE9F04FADF5197DBA4CA29D089354F8DE
:1019500025400594013B12F1140F07460B910393A8
:10196000C0F24283B449D31E81FB0301DB17C3EBF2
:10197000A10307930133A3EB8303DB00D318069382
:10198000079A039BD61A059A12EB03091BD409F197
:101990000109DDF88CA2B1440DF180080024002576
:1019A00008E05AF82600FEF7FDFC01364E45E8E84F
:1019B000020108D0002EF4DA0136204629464E45B1
:1019C000E8E80201F6D1059B002BA7F10803049378
:1019D000C0F2BA831946089BDDF80C90DA00029237
:1019E000059A01EBC30820A901EBC30AD3180DF532
:1019F000E07B0193039B002BC0F2B181049E57460C
:101A00000024002577E90223F6E90201FEF734FD00
:101A100002460B4620462946FEF778FB464504461B
:101A20000D46EFD1019B09F101099945EBE802450B
:101A30000AF1080ADED1059A04980CA901EB820389
:101A400002990144083B8B460BA90993134601EB0D
:101A500082020A920193019A98A901EBC203002A1B
:101A600053E928452ADD0DF5E07A0AEBC2080DF1AD
:101A70003009724B002220462946FEF7FDFCFFF795
:101A8000DDFBFEF78FFC6E4B002206460F46FEF78D
:101A9000F3FC02460B4620462946FEF735FBFFF7CE
:101AA000CDFB044678E9022349F8044B3046394619
:101AB000FEF72CFBD04504460D46DAD1DDF8189030
:101AC000204629464A4600F0A3FC00224FF07F53EF
:101AD00004460D46FEF7D0FC00F01EFC594B0022D8
:101AE000FEF7CAFC02460B4620462946FEF70CFBD1
:101AF0000D460446FFF7A2FB8046FEF753FC0B465B
:101B0000024629462046FEF7FFFA4B46002B0646C2
:101B10000F4640F39980019A0CA9013AC9F11803C4
:101B200051F8225045FA03F101FA03F3EB1AC9F117
:101B300017050CA843FA05F5002D40F8223088441B
:101B400000F38C800022002330463946FFF744FB27
:101B5000002800F05082019B059A03F1FF3A52459C
:101B600010DC03F180430CAA013B0A9802EB8303CB
:101B7000002253F80419834242EA0102F9D1002AF3
:101B800040F0F080059B0CAA013B52F82330002B5B
:101B900040F0E080099A012352F80419013300292A
:101BA000FAD001994A1CCB1802939146079B0899D9
:101BB00002EB030A019B0B44984620AB0AF1804AD2
:101BC00003EBC808A39B0AF1FF3A03EB8A0A70AB48
:101BD00003EBC20301935AF8040FFEF7E3FB039BE8
:101BE000002BC8E90001474608F108081EDB049EE7
:101BF000083F0024002501E077E80201F6E902230E
:101C0000FEF73AFC02460B4620462946FEF77EFACE
:101C10005E4504460D46EFD1019BE3E80245019382
:101C2000029B09F101099945D5DD13E70024002540
:101C3000F2E700BF38920000ABAAAA2A0000703E6B
:101C400000007041000020406BD1019B0CAA013BB9
:101C500052F82350ED15002D7FF774AF019B002B38
:101C600008F1010840F3C5810C9C002C51D1019B67
:101C7000012B20D00CAB012253F8044F002C4BD089
:101C8000531C0CA9C4F1807441F822400199994277
:101C900010DD0CAA0CA852F8232000EB830300EB04
:101CA00081006FF07F4100E01A688A1A43F8042B24
:101CB0008342F9D10124069B002B0EDD012B00F09D
:101CC0007A81022B09D1019B5A1E0CAB0CA953F847
:101CD0002230C3F3150341F82230022D7FF432AFD6
:101CE00032463B46BC490020FEF70EFA06460F4638
:101CF000002C3FF427AF069AB749002000F088FB7C
:101D000002460B4630463946FEF7FEF906460F46B8
:101D100018E701230022B4E7019901328A42ABD1CE
:101D2000C9E7AE4B0022FFF775FA054600283FF4DD
:101D300009AF019B002B08F10108C8BF022593DC05
:101D400032463B46A4490020FEF7DEF9022506464E
:101D50000F46F7E6019B5A1C9146029226E70024A3
:101D600000255FE60CAB069A53F82A30CDF81C80AC
:101D7000183A0395069273B9019B03F18043023B25
:101D80000CA901EB830353F804190AF1FF3A183A3E
:101D90000029F8D00692069A8F49002000F038FBFF
:101DA000BAF1000F04460D46C0F2D28170AB03EBCE
:101DB000CA0B0CAA0AF10103069302EB83084FEA4F
:101DC000CA030BF10809049358F8040DFEF7EAFA68
:101DD00022462B46FEF750FB06460F46804B204618
:101DE000294669E902670022FEF746FB0CAB9845DD
:101DF00004460D46E8D148ABCDE9013ADDF814A020
:101E0000BAF1000F4FF000092CDB71A3D3E90023D6
:101E1000DFF8D0815F4600240025002603E0B145AD
:101E200010DBF8E80223F7E80201FEF725FB024683
:101E30000B4620462946FEF769F90136B2450446AD
:101E40000D46ECDA019B029A03EBC9039145C3E905
:101E50000045ABF1080B09F1010306D0BAF1000F00
:101E60009946D2DA00240025ECE7A29BDDF808A011
:101E7000022B23DC002B00F3F18018D1049CA29AE2
:101E8000019D08342C4413461046194674E9022378
:101E9000FEF73CF9A54202460B46F5D1039909B17C
:101EA00003F1004319460B9B1046C3E90001079B51
:101EB00003F007000DF5197DBDE8F08FA29B032B01
:101EC000F5D1BAF1000F00F05981019B049A03EBA0
:101ED000020BDBE900455BE90267204629463246F2
:101EE0003B46FEF713F9A046A94604460D46224696
:101EF0002B4630463946FEF707F94B464246FEF779
:101F000005F9CBE900016BE90245019B5B45E2D194
:101F1000BAF1010F40F33281049B019A1344D3E9D3
:101F2000004502939A460DF5947B5AE902672046D4
:101F3000294632463B46FEF7E9F8A046A946044644
:101F40000D4622462B4630463946FEF7DDF842461E
:101F50004B46FEF7DBF8CAE900016AE90245D345C2
:101F6000E3D1029C0199002308341A4601F11005BF
:101F70001846114674E90223FEF7C8F8A542034645
:101F80000A46F5D10399002940F0B3801846019B19
:101F90000B9ED3E902451146DDE94823C6E900233B
:101FA000079BC6E9040103F00700C6E902450DF5E9
:101FB000197DBDE8F08F019B5A1E0CAB0CA953F89C
:101FC0002230C3F3160341F8223086E6AFF30080D7
:101FD00000000040FB21F93F0000F03F0000E03F1F
:101FE0000000703ED08C000000216FF017030791B5
:101FF000C4E400245FE63946069F03957A423046E2
:10200000CDF81C8000F004FA5E4B002204460D4619
:10201000FFF700F9002862D05B4B002220462946DA
:10202000FEF72AFAFFF70AF90646FEF7BBF9554B09
:102030000022FEF721FA0B46024629462046FEF70B
:1020400063F8019CFFF7FAF804F1010A0CAB1837AA
:1020500043F82400069743F82A609CE6019D069AFF
:10206000002105EBC2040B460846194674E9022319
:10207000FEF74CF8A5420B460146F5D11846039BE6
:10208000002B50D10A460C460B9905460346C1E980
:102090000045DDE94801FEF737F8BAF1000F0246C6
:1020A0000B4610DD48AD012410461946F5E9022320
:1020B000FEF72CF80134A24502460B46F4DA0399E8
:1020C00009B103F1004319460B9B1046C3E9020115
:1020D000079B03F007000DF5197DBDE8F08F204642
:1020E0002946FFF7ABF8019B0CAA9A4642F8230059
:1020F00051E601990B9C486823610E4602F10042AB
:10210000B368C968A360079B626100F10040326850
:10211000606001F1004103F00700E16022600DF50D
:10212000197DBDE8F08F0B9C034600F100400A4684
:10213000C4E90010DDE94801FDF7E6FFBAF1000F40
:1021400002460B46AEDCBCE7089BDB00029372E460
:10215000A29B022B06DC002B0DDC7FF4A8AEA29A1A
:1021600013469BE6A29B032B7FF4A1AE002348A954
:102170001A46019106E70021084680E700231A4627
:1021800000E700BF000070410000703E000000004A
:102190002DE9F04F21F0004687B0B6F1795F044693
:1021A00001919046994604DAFFF748F8002800F0BC
:1021B0008F80019B224619462046FEF75DF9019B60
:1021C00006460F463246194620463B46FEF754F96E
:1021D00043A3D3E9002382468B4630463946FEF7B7
:1021E0004BF941A3D3E90023FDF78EFF32463B466E
:1021F000FEF742F93EA3D3E90023FDF787FF3246FD
:102200003B46FEF739F93CA3D3E90023FDF77CFFF9
:1022100032463B46FEF730F939A3D3E90023FDF7F8
:1022200075FF109BCDE90201002B37D0384B0022FF
:1022300040464946FEF720F9DDE90223CDE90401D5
:1022400050465946FEF718F902460B46DDE90401EF
:10225000FDF75AFF32463B46FEF70EF942464B4623
:10226000FDF752FF28A3D3E9002306460F46504648
:102270005946FEF701F902460B4630463946FDF74E
:1022800045FF02460B4620460199FDF73DFF0446F7
:102290000D462046294607B0BDE8F08F02460B46A2
:1022A00030463946FEF7E8F817A3D3E90023FDF7D7
:1022B0002BFF52465B46FEF7DFF82246019BFDF7F7
:1022C00025FF04460D462046294607B0BDE8F08F9D
:1022D000019D2046294607B0BDE8F08FAFF300808E
:1022E0007CD5CF5A3AD9E53DEB9C2B8AE6E55A3EA0
:1022F0007DFEB157E31DC73ED561C119A0012A3F3C
:10230000A6F810111111813F495555555555C53F36
:102310000000E03F00000000F8B5C1F30A57A7F243
:10232000FF35132D0B460C460246064620DC002DD9
:1023300040DB354F2F4101EA070C5CEA000C14D05A
:102340002FA3D3E90023FDF7E1FE00220023FEF7CF
:102350006BFF40B1002C03DA4FF480132B411C4477
:1023600024EA070400263246234610461946F8BDE3
:10237000332D07DDB5F5806FF7D1FDF7C7FE0246B7
:102380000B46F2E7A7F213474FF0FF3C2CFA07F792
:102390000742EAD01AA3D3E90023FDF7B7FE0022D3
:1023A0000023FEF741FF0028DDD0002C1BDB26EACE
:1023B0000706D8E712A3D3E90023FDF7A7FE002202
:1023C0000023FEF731FF0028CDD0002C02DB0026D1
:1023D0003446C8E724F000430C4A1E43002E18BFC1
:1023E00014460026BFE7142D08D00122C5F134039E
:1023F00002FA03F39E1928BFA418D8E70134D6E7E0
:102400009C7500883CE4377EFFFF0F000000F0BFA2
:10241000F8B5C1F30A5304460D460E46174673BB82
:1024200021F000460346334328D0314B0022FEF70B
:1024300023F8304B9F4204460D461ADBC1F30A5382
:102440000E46363B3B4440F2FE72934220DC002BAA
:102450003CDC13F1350F2CDA4CF250339F4217DC81
:1024600005F0004343F0D27141F4B731224841F006
:102470001F011BA3D3E90023FDF7FEFFF8BD40F2C7
:10248000FF729342DED102460B46FDF73FFEF8BDD8
:1024900005F0004343F0FC4141F45F1141F4105159
:1024A00011A3D3E90023154841F03C01FDF7E4FFF7
:1024B000F8BD26F0FF4626F4E006363346EA03511F
:1024C00020460F4B0022FDF7D7FFF8BD26F0FF4650
:1024D00026F4E006204646EA0351F8BDAFF300803B
:1024E00059F3F8C21F6EA5019C7500883CE4377E45
:1024F00000005043B03CFFFF59F3F8C29C750088C0
:102500000000903CF8B50F4614461E46FEF7CCFA84
:102510000146FEF719FA1249FEF71EFB054638463A
:10252000FEF7C2FA01462846FEF7CAFBFDF74CFF4C
:1025300005F0BEF8FEF7B2F94FF07E51FEF704FA4F
:102540004FF07C51FEF708FB0546301BFEF7ACFA56
:1025500001462846FEF700FBFEF74EFC2044F8BD7E
:10256000D80F4940F8B5194805F04BF900F030F89C
:102570000D21002000F060F80E21012000F05CF831
:1025800000F040F8002500271BE001354FF4877369
:10259000002219462846FFF7B5FF0146002005F046
:1025A000E3F84FF4F670002104F080FC013407F1E9
:1025B0001B06A642E9DA42F26760002104F076FCCD
:1025C0003746B7F5877FDEDA3C46F0E7088D000036
:1025D00008B5094B0222C3F808250022C3F81025CC
:1025E0002021C3F80012C3F80425044AC3F8542577
:1025F000034805F006F908BD00A0014000E2040010
:10260000148D000008B5034B01221A60024805F042
:10261000F8F808BD00A00140288D00004FF4FA43EF
:1026200003FB00F0034BA3FB0030000A00F5FA5057
:10263000704700BF49D6B9F2032853D8F8B50A4607
:102640000B02294951F8205043F4981343F0030337
:1026500005F5A274254941F82430254B53F8203064
:10266000244C04EB8304244B53F8203001F5C8318B
:1026700003F1A20641F83640AF00204C04EB85047C
:1026800001EBC6014C6010F0010F1FD11C4951F83D
:1026900020401C49A2341C4D41F83450A5F5A0350A
:1026A000A5F592753D4401EBC4014D60012101FA8D
:1026B00003F3134C54F82040A1400B431149C1F8D7
:1026C00004350146114805F09CF8F8BD104C3C4417
:1026D000411E0B4D55F8211001F51171094D45F8BA
:1026E0002140E3E7704700BF788D000000600040A4
:1026F000A88D000040A10140888D0000606000406E
:10270000988D000000F0014054A10140388D000078
:102710003060004008B5032805DC49B1094B9942F7
:1027200007D9084905E00146074805F06AF808E0BE
:102730000121064B53F8203003F5A873044A42F8F0
:10274000231008BDFFE10400648D0000A88D000087
:1027500000A0014008B50B6801330B60014B1B68FA
:10276000984708BD00000020014B1860704700BF6B
:102770000000002000B583B002460B460021019105
:1027800001A9034800F04EF903B05DF804FB00BF57
:102790005527000010B584B0044601900291002135
:1027A000039101A9054800F03DF9039B029A934269
:1027B00001DA0022E254039804B010BDD377000080
:1027C0002DE9F04383B0044608461546238B13F0E9
:1027D000080F05D103F0070600230093019369E079
:1027E000012909D043F02003238385F31188BFF327
:1027F0006F8F03B0BDE8F08343F010032383F4E749
:10280000204605F041F857E0D4F814904A4669464E
:10281000204605F052F800275AE023691F68062178
:10282000204605F00AF84FF0000951E023695F687F
:102830000421204605F001F84FF0000948E0236923
:102840009F680521204604F0F8FF4FF000093FE0A3
:10285000002246E0002244E043F00803238385F38E
:102860001188BFF36F8F002944D1009B2BB14B46D9
:1028700042466946204605F096F817B1254920469C
:10288000B8474FF02003EFF3118583F31288BFF3AD
:102890006F8F238B23F008032383238B13F0100FF8
:1028A0002ED023F0100323830120268B06F0070689
:1028B00000289AD00228A3D0002896D00128A3D0BF
:1028C0000328AAD00428B1D00528B8D00027B946DB
:1028D000238B03F00708B045BAD0A268002AB9D00C
:1028E00001221146002AB7D1009A002AB4D1002F44
:1028F000B2D1D2E74A464146204604F0A6FFB4E7EB
:1029000013F0200F04D023F0200323830220CCE710
:102910000020CAE7D579000010B404460268002000
:1029200013780749595C11F0040F06D000EB8000C2
:10293000013203EB40003038F2E7226010BC7047F0
:10294000499200002DE9F04F83B004460D460192F4
:102950009A46DDF83080D378314A13F802B00BF094
:10296000030B6F2B0FD006D9702B0FD0782B10D103
:102970004FF0100923E0582B02D04FF00A091EE057
:102980004FF010091BE04FF0080918E04FF0100954
:1029900015E04FF00A0912E0D2B23032D2B208F894
:1029A000012D32463B4620462946FEF745FABD42F8
:1029B00008BFB44218D3D04516D904460D464E463A
:1029C00000274A463B4620462946FEF735FA092AA3
:1029D000E2D9BBF1010F03D0D2B25732D2B2DEE757
:1029E000D2B23732D2B2DAE7019B1B7813F0200F54
:1029F00005D0B9F1080F06D0B9F1100F09D0404643
:102A000003B0BDE8F08F019A937843F00803937008
:102A1000F5E7019A937843F010039370EFE700BF56
:102A2000499200002DE9F04F93B006460D469246BC
:102A3000039300249AF80000002800F0D68425288B
:102A400008D00AF1010A2946B0470028C0F2CE8416
:102A50000134EFE70023069307930B930893099340
:102A60000A930AF101089AF80130252B01D00127B9
:102A70002CE00AF102088DF82330A8E19DF82030FF
:102A800043F004038DF82030FFB108F101081CE089
:102A90009DF8203043F008038DF82030F4E79DF8CE
:102AA000203043F010038DF82030EDE79DF8203002
:102AB00043F020038DF82030E6E79DF8203043F006
:102AC00040038DF82030DFE700274FB398F800303F
:102AD000203B102BF8D801A252F823F09F2A0000C7
:102AE000C92A0000C92A0000AD2A0000C92A000036
:102AF000C92A0000C92A0000C92A0000C92A00000A
:102B0000C92A0000C92A0000912A0000C92A000031
:102B10007D2A0000C92A0000C92A0000BB2A000043
:102B20009DF8203003F04403442B6DD0CDF8148081
:102B30009DF8203043F080038DF8203098F8003065
:102B40002A2B68D005A8FFF7E7FE059B984512D011
:102B50009DF8203043F080038DF820300990C3F3B6
:102B60004003002860DB002213439DF8202063F31C
:102B700041028DF82020059B05931B782E2B14BF56
:102B8000002301239DF8212063F341028DF82120C9
:102B9000002B4BD0059B5A1C05925B782A2B48D002
:102BA00005A8FFF7B9FE0A909DF82030C3F3400353
:102BB000002847DB002213439DF8202063F34102E5
:102BC0008DF82020DDF8148098F800304C3B2E2B37
:102BD00000F2DC80DFE803F0CADADADADADADADA2D
:102BE000DADADADADADADADADADADADADADADADA45
:102BF000DADADADA38DA6ADA51DADADADADADADAD0
:102C0000C0DADADADADAB6009DF820306FF386132C
:102C10008DF820308AE79DF8213043F001038DF8CC
:102C2000213043460133A7E701229DE7DDF81480F8
:102C3000CAE79DF8213043F004038DF8213002F1FA
:102C40000108C1E70122B6E708F1010298F8013056
:102C5000682B08D09DF82130022161F3C6038DF85E
:102C6000213090462BE09DF82130012262F3C6030B
:102C70008DF8213008F1020821E008F1010298F8EE
:102C800001306C2B08D09DF82130032161F3C6037D
:102C90008DF82130904612E09DF82130042262F335
:102CA000C6038DF8213008F1020808E09DF82130B4
:102CB000052262F3C6038DF8213008F1010818F8E7
:102CC000013B8DF82330A3F14102372A00F25081F5
:102CD000DFE812F026014E014E014E0126012601C9
:102CE00026014E014E014E014E014E014E014E0194
:102CF0004E014E014E014E014E014E014E014E015C
:102D00004E0113014E014E014E014E014E014E0186
:102D10004E014E0126014E011301630026012601DA
:102D200026014E0163004E014E014E014E012F015E
:102D300013013F014E014E013F014E0113014E01AF
:102D40004E0113019DF82130062262F3C6038DF86F
:102D5000213008F10108B2E79DF82130072262F323
:102D6000C6038DF8213008F10108A8E79DF821304D
:102D7000082262F3C6038DF8213008F101089DF89E
:102D8000203043F002038DF8203098E79DF8213081
:102D90006FF3C6038DF8213091E79DF822200121C1
:102DA00061F302028DF822209DF8212002F07802C2
:102DB000402A00F0AA80632B00F0AE809DF82030FE
:102DC000C3F34002174367F341038DF820309DF8A9
:102DD000213013F0010F00F0DA80039B1A1D0392DB
:102DE0001F68002FC0F2CB809DF8213013F0040F34
:102DF00000F0DF80039B1A1D0392D3F800B0BBF1F3
:102E0000000FC0F2CD80002309930A939DF8223071
:102E100003F007039DF82110C1F3C301012B00F05B
:102E2000D180022B00F01681042B00F06781032B68
:102E300000F07E819DF8209019F00303029340F08A
:102E40007D819DF82330253B532B00F23382DFE850
:102E500013F08101310231023102310231023102BB
:102E600031023102310231023102310231023102CA
:102E700031023102310231023102310231023102BA
:102E800031023102310231023102310231023102AA
:102E9000310231023102310231023102310231029A
:102EA000310231023102310231023102310231028A
:102EB0003102310231023102C701310231023102E5
:102EC0003102310231023102310231023102A101FB
:102ED000AB013102310231023102AB013102310268
:102EE000310231020802C701EA01310231028F01C9
:102EF0003102C70131023102C7019DF822200221AF
:102F000061F302028DF822204EE79DF8201041F077
:102F100001018DF820104EE7171E18BF01274DE75D
:102F20009DF82230042262F302038DF8223001273B
:102F300044E79DF82230032262F302038DF8223029
:102F40009DF8213003F07803402B7FF437AF012741
:102F500034E79DF82230032262F302038DF8223019
:102F60009DF8213013F0780F3FF428AF012725E7B3
:102F70009DF8203043F001038DF820301EE79DF8C6
:102F8000203043F004038DF820307F422CE79DF978
:102F90002030002B02DB4FF0FF3725E7099F23E7A6
:102FA0009DF821306FF341038DF821304FF0FF3B46
:102FB00029E713F0020F02D0DDF828B023E74FF025
:102FC000FF3B20E7CB1E042B04D8DFE803F00B1DEA
:102FD00029353500039B1A1D03921A68D317CDE9D2
:102FE000062306E0039B1A1D03921A68D317CDE946
:102FF0000623012928D002297FF41CAFBDF918202F
:10300000D317CDE9062315E7039B073323F0070306
:1030100003F108020392D3E90023CDE90623E8E790
:10302000039B073323F0070303F108020392D3E95C
:103030000023CDE90623DCE7039B1A1D03921A68DF
:10304000D317CDE90623D4E79DF818300693002363
:103050000793EFE6CB1E042B04D8DFE803F00B1F29
:1030600035414100039B1A1D03921B680693002300
:1030700007931EE09DF82330632B07D0039B1A1D96
:1030800003921B6806930023079312E0039B1A1D0B
:1030900003921B680693002307930AE0039B073300
:1030A00023F0070303F108020392D3E90023CDE9DB
:1030B000062301291CD002297FF4BCAEBDF81830CC
:1030C000069300230793B5E6039B073323F007031A
:1030D00003F108020392D3E90023CDE90623E8E7D0
:1030E000039B1A1D03921B68069300230793E0E7D6
:1030F0009DF818300693002307939BE608290BD010
:10310000039B073323F0070303F108020392D3E97B
:103110000023CDE906238DE6039B073323F0070345
:1031200003F108020392D3E90023CDE9062381E6E7
:10313000039B1A1D03921B6806937BE64346524687
:103140002946304604F0D6FC0028C0F24F810444E2
:10315000C2466FE429462520B0470028C0F24681C8
:103160000134DDF808900DF1460B4FF0000AA7E09E
:10317000DDF818A0BBF1000F08DB5946504605F0FA
:1031800021FC0AEB000BDDF8089099E05046FEF7B1
:103190007DF8F6E7069B8DF83030DDF808900DF1EC
:1031A000310B0DF1300A8BE019F0080F05D119F041
:1031B000100904D04FF0200901E04FF02B09DDE9A0
:1031C0000623002A73F1000102DBCDE9062309E0A2
:1031D000524263EB4303CDE906234FF02D0901E092
:1031E000DDF808900DF1460300930CAB08AADDE969
:1031F0000601FFF7A7FB8246BBF1000FC0F29080EB
:103200000DF14603A3EB0A039DF820206FF386120D
:103210008DF820209B4540F28680ABEB0303099399
:103220000DF1460B4CE0069830B9DDF80890DFF858
:10323000C4B1ABF1050A43E00DF1460300930CABBA
:1032400008AA0021FFF77EFB82469DF8223043F05A
:1032500010038DF8223078238DF82330DDF80890A4
:10326000CAE7069A9DF82130C3F3C303072B06D89B
:10327000DFE803F0040C0E1012171C1E1460DDF8BA
:1032800008900DF1460B4FF0000A19E01470F6E7B4
:103290001480F4E71460F2E72046E117C2E9000168
:1032A000EDE72046E117C2E90001E8E71460E6E730
:1032B0001460E4E7DDF808900DF1460B4FF0000ACA
:1032C000BAF1000F00F08E80ABEB0A02B9F1000FEB
:1032D00000D001329DF8221011F0100F26D00232DA
:1032E000099B134411F0400F01D00A9A1344002F98
:1032F00032DDFF1A9DF8203013F0040F2CD113F0AB
:10330000400F18D0B9F1000F18D029464846B047F1
:1033100000286BDB0134DDF80890302302930FE0C6
:103320000DF1460BCCE70DF1460BC9E711F0080F84
:10333000D6D00132D4E72023029301E03023029358
:103340003B465F1E002B07DD29460298B047002848
:103350004CDB01343B46F4E7B9F1000F05D02946B8
:103360004846B047002841DB01349DF82230C3F3C2
:103370000012C3F3C003134305D029463020B047E1
:10338000002833DB01349DF8223013F0100F06D0F3
:1033900029469DF82300B047002827DB0134099B0C
:1033A00003F1FF39002B07DD29463020B047002804
:1033B0001CDB01344B46F3E75B4652462946304658
:1033C00004F098FB002811DB0444002F07DD294698
:1033D0002020B047002809DB0134013FF5E7C24651
:1033E000FFF728BBC246FFF725BB204613B0BDE858
:1033F000F08F00BFBD8D000008B54FF02002EFF345
:10340000118382F31288BFF36F8F00F0DFFD034852
:1034100004F0F7F900F004FAFCE700BFC08D0000EB
:1034200070B584B02C4B1C7D04F01F0301229A4020
:1034300061092A4B03EB8103D043BFF35B8F53E851
:10344000001F01EA000543E80056002EF7D1BFF344
:103450005B8F0A423DD004EB44039A00204B134497
:1034600093E8070004AB03E907001E4B63B104F0C7
:1034700026FC4FF02003EFF3118683F31288BFF38D
:103480006F8F194B1D680AE0002383F31188BFF387
:103490006F8FEEE72B460DB12B686BB11D465DB10A
:1034A000AA68002AF6D00C4B1B7D03EB430399005E
:1034B0000B4B585C9047EDE786F31188BFF36F8F95
:1034C000074804EB4404A2008118002383504B609A
:1034D0008B6004B070BD00BF8C0E00200004002083
:1034E00004040020BF7C0000F8030020F0B589B080
:1034F0000546554B1C7D04F01F0301229A406109CB
:10350000524B03EB8103BFF35B8F53E8001F41EA8B
:10351000020043E80006002EF7D1BFF35B8F0A429A
:1035200017D004EB44034A4A12F82330002B00F072
:103530008880B5F1FF3F1CD103F0A6F94FF02003BE
:10354000EFF3118683F31288BFF36F8F414B1D6831
:103550002AE004EB44063E4B03EB86066F462A4600
:103560002146384604F0E1FA97E8070086E80700AC
:10357000D7E704EB440302EB83039B68590CD803A1
:10358000354E364A002380194FF0000646EB010104
:10359000FDF752FC0121281A05F0B5F9CCE72B46BE
:1035A0000DB12B686BB11D465DB16A68002AF6D07B
:1035B000254B1B7D03EB4303254911F8230090475E
:1035C000EDE786F31188BFF36F8F04F01F0301212D
:1035D00099406309224A02EB8303BFF35B8F53E8F0
:1035E000002F0A4343E800200028F8D1BFF35B8F87
:1035F00004EB4403164A02EB830393E8070008AB8D
:1036000003E90700174B0BB104F046FBFFF708FF77
:1036100003F038FB012004F01F02012393406409EA
:103620000A4A02EB8404DB43BFF35B8F54E8002FAC
:103630001A4044E800210029F8D1BFF35B8F09B09C
:10364000F0BD0020E7E700BF8C0E00201004002032
:1036500004040020F80300203F420F0040420F0006
:1036600000040020997C000008B5024803F08EFE9B
:1036700008BD00BFEC8D0000D0B108B54268042A37
:1036800005D0D2B1006802F0FDFE002008BD03683D
:103690000022BFF35B8F53E8001F012903D143E8E9
:1036A00000200028F7D1BFF35B8F04D11046EDE76F
:1036B0006FF4E04070470248E8E70248E6E700BFE1
:1036C000E98FFFFFEA8FFFFF20B308B54268042AA5
:1036D00002D092B911480FE003680122BFF35B8F5B
:1036E00053E8001F002903D143E800200028F7D148
:1036F000BFF35B8F0CD1002008BD00684FF0FF3294
:103700004FF0FF3302F034FE0028F5D00448F3E711
:103710000348F1E76FF4E040704700BFEA8FFFFF16
:10372000E98FFFFF10B5044690B16368042B0ED0FB
:10373000082B0CD05BB113F0020F0ED123680022CE
:103740001A605A609A60DA601A610023636010BDE3
:10375000054B5B6805489847E7E72146044804F0B5
:10376000BCFE00232360F0E7DC000020F48D0000A5
:103770001404002010B5044678B16368042B0BD004
:10378000082B09D00BB9236863B1206804F036FF19
:10379000636843F00103636010BD104B5B68104821
:1037A0009847EAE74FF0FF324FF0FF3321460D48CC
:1037B00002F09AFC08B923681BB9084B5B680A48F9
:1037C0009847236800221A605A609A60DA601A618A
:1037D000636843F002036360D7E700BFDC000020AA
:1037E000F48D0000140400201C8E000008B5402356
:1037F00014220449044804F062FE0449044803F01A
:1038000027FE08BD30040020140400205C8E000058
:103810004C8E0000014910220A60704710ED00E054
:1038200072B6404080F31188BFF36F8FBFF34F8FA4
:1038300030BF62B6BFF36F8F704700BF72B64940AA
:1038400081F3118820BF80F3118862B6704700BFF2
:1038500043B2002B08DB00F01F005B09012202FAD3
:1038600000F0024A42F82300704700BF00E100E088
:103870004209054B53F8222000F01F00012303FAF0
:1038800000F01040704700BF00E100E0013143B29A
:10389000002B08DB4901C9B203F1604303F5614322
:1038A00083F80013704700F00F004901C9B2014BC3
:1038B0001954704714ED00E030BFFFF7FDBF00BFA3
:1038C00008B50B4B0B4A22F07F029A60BFF34F8F73
:1038D000BFF36F8FD3F8882022F47002C3F88820DA
:1038E00002F0A2FB03F04EFB00F018FA02F0A8FB76
:1038F00000ED00E0000000000A4A9368C3F8A80049
:1039000009490968C3F8AC1008494B6843F0805373
:103910004B60002383F31188BFF36F8F9368D3F854
:10392000AC0070478C0E0020CC8F000000ED00E052
:1039300013498A684FF030001044EFF3098C80E897
:10394000F01F202080F31288BFF36F8F0D4F4FF0D0
:103950000066CA698A603E60D2F8A8000023C2F8F7
:10396000A83080F3118804B5104600F079FABDE85C
:10397000044002F1300090E8F01F8CF30988704792
:103980008C0E002004ED00E01EF0040F0CBFEFF3DE
:103990000880EFF30980816911F8021C0229FFD029
:1039A00001B504F0CFF801BD10B4A2F120040D4917
:1039B00021F0010142F8081C42F8203C019B42F82A
:1039C0001C3C029B42F8183C039B42F8143C4FF00D
:1039D000807342F8043C04650023C0F8A83010BC92
:1039E000704700BFE17A0000164B9A68DAB110F117
:1039F000160F1AD010B4D2F89830A3F120048442E4
:103A000005D8834208D98B4208D8002100E0002164
:103A100031B9002010BC70470021F9E70121F7E718
:103A2000D2F89800F6E700207047D2F898308B4221
:103A300094BF0021012109B900207047D2F89800F5
:103A4000704700BF8C0E002008B50D461446084B89
:103A5000986000F005FA204685F30988002163B6D6
:103A600081F31188BFF36F8F0022002304F038F830
:103A70008C0E002001B572B60B4A906900281EBF5B
:103A80000021916104F09EFD62B6EFF30580A0F184
:103A900010004FEAC0000549014409C99847BDE834
:103AA00001400349084700008C0E0020D48A000022
:103AB000B53A0000044B9968D869884203D003499D
:103AC0004FF080520A6070478C0E002004ED00E039
:103AD00010B51446124B9A6A9A6A9B6A13F4007FD7
:103AE0000BD00F4B9A6B9B6A13F4004F05D021B19A
:103AF0000B4A936A23F400439362094B9A6A9B6AC8
:103B000013F4807F01D1064B9B6A054A936A43F404
:103B10007F439362012104F027F82070002010BD3C
:103B200000ED00E0074B9A6A9A6A9A6A9A6A9A6A62
:103B30009A6A9A6A6FEA02426FEA12429A62002017
:103B4000704700BF00ED00E070B505461646204BFB
:103B50009A6A9A6A9B6A13F0020F0CD01C4B586B3E
:103B60009B6A13F0800F25D039B1194A936A23F06C
:103B70008003936201E06FF01500154B9A6A9A6A10
:103B80009B6A13F0100F04D1114B9C6A14F00204CD
:103B900004D00F4B5C6814F400640ED10C4A936A95
:103BA00043F0FF0393620121284603F0DDFF3070EC
:103BB000204670BD6FF01500DFE72946FFF714FFC0
:103BC00004460028EAD080F309880224E6E700BF13
:103BD00000ED00E010B5044600230B701B4BD86AC3
:103BE00010F002002DD1DB6A002B2BDB174BDB6AB8
:103BF00013F0804327D0A36933F8022C4DF60273EB
:103C00009A4210D003F1604303F626631B7863B930
:103C10000F4B1B787BB90F4B1B889BB293B120468F
:103C2000FFF780FF0EE020680CE00A4601212046E5
:103C3000FFF78AFF06E00A4601212046FFF748FF0A
:103C400000E0002010BD1846FCE700BF00ED00E0DA
:103C500029ED00E02AED00E0F0B58BB00C46254BD5
:103C60005968C1F30801002383F31188BFF36F8FF4
:103C700002F07F43B3F17F4F15D102F00C03082B04
:103C800014D012F0080F0BD000270DF127022046A8
:103C900003F06FFF06469DF8273053B10BB0F0BD1F
:103CA00004460127F1E700273C46EEE700273C46A3
:103CB000EBE701AD20686168A268E3680FC5206981
:103CC0006169A269E3690FC54FB1089BC3F308029C
:103CD0005AB96FEA53236FEA4323089305E0089B20
:103CE00023F4FF7323F00103089301A9304603F086
:103CF00025FFD3E700ED00E0024A536943F01003CB
:103D00005361704700ED00E0EFF30880EFF30981A5
:103D100001B57246FFF7A0FF01BD00BF002206E01B
:103D200002F00F01094B0B442021197601322F2A92
:103D30000ADC53B2002BF3DB03F1604303F561436C
:103D4000202183F80013F1E7704700BFFCEC00E08E
:103D5000002080F31488BFF36F8F04F041FE002031
:103D60000D490860BFF34F8F0C4880F3088800F0BE
:103D700029F8202080F3118809484FF40261401887
:103D800080F30988EFF314800221084380F314883C
:103D9000BFF36F8FFFF794FD94ED00E0C014002097
:103DA00040160020064B1868C0F30720002383420A
:103DB00005DA034A9360002111610133F7E7704788
:103DC00090ED00E010B572B6002484F31388FFF77D
:103DD000E9FF234608E003F120010E4A4FF0FF30CF
:103DE00042F821000133DBB2072BF4D9002308E0AD
:103DF00003F16001074A4FF0FF3042F82100013320
:103E0000DBB2072BF4D962B6BFF34F8FBFF36F8FCE
:103E100010BD00BF00E100E008B5084B9B6883427D
:103E200002D003F075F808BDEFF30583002BF8D03E
:103E3000034A536843F080535360F2E78C0E00202E
:103E400000ED00E008B5034B034A0121034803F0ED
:103E500016FF08BD0000042000000020708E000046
:103E600008B5D0F89830203B044803602023436015
:103E7000034B8360012103F006FF08BD30090020D9
:103E800000000B15064A90600B6823F01F030343E4
:103E900043F01003D3608B6843F001031361704754
:103EA00090ED00E010B5034C0123227803F0BFFE33
:103EB000207010BDE80E002008B50023084A1278D3
:103EC00003F0B5FE10F1160F08D00346072B05DCF2
:103ED000044A9360002111610133F7E708BD00BF78
:103EE000E80E002090ED00E0034B05225A60BFF37E
:103EF0004F8FBFF36F8F704790ED00E0BFF35F8F80
:103F0000014B00225A60704790ED00E038B50E4B2F
:103F10001D68082D15D8FFF7F1FF0024A5420AD926
:103F2000094B596804EB4402930019442046FFF7FB
:103F3000A9FF0134F2E7054B1D70FFF7D5FF002004
:103F400038BD4FF0FF30FBE78C8E0000E80E0020FC
:103F5000014B1860704700BF24000020064B1B680F
:103F6000064A1268082B01D000207047022A01D0AF
:103F7000002070470120704730010010340100100C
:103F800010B54FF02003EFF3118483F31288BFF3D1
:103F90006F8F01230B4AC2F840354FF08042C2F8C0
:103FA0007835FFF7DBFF10B1074B01221A604FF0A5
:103FB00080430122C3F8802584F31188BFF36F8FFB
:103FC000002010BD00E0014038060040C0B24FF0B4
:103FD0008043C3F81C05BFF34F8F0549CA6802F43C
:103FE000E062044B1343CB60BFF34F8F00BFFDE78C
:103FF00000ED00E00400FA0530B108B58001034B84
:1040000043F00103984708BD704700BFC08C000013
:10401000004870478C090020034BC01A8010034BE6
:1040200003FB00F0704700BF4C090020B76DDBB602
:1040300038B505460C46FFF7EFFF0146402203481E
:1040400003F0BFFE01462846A04738BD5C8A000049
:1040500030B583B005460C46FFF7DEFF014640232E
:1040600000932346054A064803F0C5FE011E01DB06
:1040700003B030BD2846A047FAE700BF3F7E0000EE
:104080005C8A000008B510B101280DD008BD0021E0
:10409000084803F01FFE836813F0070FF6D10021D4
:1040A000044803F07CFEF1E70121024803F077FEAB
:1040B000ECE700BF5C8A000010B54FF02003EFF37F
:1040C000118483F31288BFF36F8F134A136843F090
:1040D0000203136013F0010F08D1002384F3118849
:1040E000BFF36F8F9BB903F0B2FE10BD4FF080435A
:1040F000D3F80C24D3F80C3412F0010F01D10023B3
:10410000ECE7FFF785FF03F037FE0123E6E7002128
:10411000024803F044FEE8E79C0900205C8A0000A6
:1041200008B50A4BBFF35B8F53E8002F22F0020162
:1041300043E800100028F7D1BFF35B8F12F0010FA6
:1041400000D008BD03F08DFEFBE700BF9C090020F6
:1041500000B585B0CDF800D0CDF804D0002302938F
:10416000012303936B46074A03F061FE002805DB39
:104170004FF480420023684602F0ECF905B05DF888
:1041800004FB00BF777E000070B5064600220121C7
:104190001046FFF77BFB0020FFF75AFB114801F0A8
:1041A00051F8114B98421AD104F01CF9002403E095
:1041B0000123AB601C44E4B2012C0ED821463046EA
:1041C00003F088FD05462146304603F08EFD074981
:1041D00003F00EFC0028EBDA00E0002070BD6FF069
:1041E0000400FBE7854000000000AD0BDC8E000002
:1041F00070B50546012807D14FF08043D3F81C3431
:1042000003F00303012B58D004F0A5F928B92E4B75
:104210001B78002B41D0002300E001231C46002B1B
:104220003DD04FF02003EFF3118683F31288BFF3E4
:104230006F8F24B94FF080430222C3F808234FF058
:104240008042D2F8183403F00303D2F8182412F491
:10425000803F2BD100221AB1012B29D0012D27D06C
:10426000FCB13046FFF7EAFA4FF08043D3F8183537
:10427000002BE4D1154B1B68002BE0D0134B002220
:104280001A601B6801234FF08042C2F81835104AAB
:10429000C2F880310F4A1360D1E70123BEE7002640
:1042A000C7E72120002102F001FEDDE70122D2E76D
:1042B00024B186F31188BFF36F8F70BD4FF0804338
:1042C0000222C3F80423F8E7E90E002004010040AD
:1042D00000E100E00800004010B50446104B012149
:1042E000BFF35B8F53E8002F43E800100028F9D19B
:1042F000BFF35B8F1AB1631E012B0CD910BD0948A7
:1043000003F0F3FC084900234B60CB6001238B6072
:1043100003F08AFBEFE72046FFF76AFFEEE700BFF6
:10432000A00900205C8A00003C09002010B504466A
:104330000A2807D0074B1868E1B283685B68984782
:10434000204610BD034B186883685B680D219847B1
:10435000F0E700BFA409002010B5044C2046FFF789
:10436000F7FD2046FEF700FA10BD00BF2D43000008
:1043700008B50648064B186004F063F818B1FFF75B
:10438000EBFF002008BD6FF01200FBE7BC8A0000C5
:10439000A40900201F4B03401F4A934232D016D875
:1043A000062B2BD006D9B3F5801F0DD101230B703E
:1043B00000207047FBB1022B03D104230B700020B7
:1043C00070476FF0150070476FF015007047134A83
:1043D00093421BD0B3F5A00F03D103230B70002031
:1043E0007047B3F5800F03D102230B700020704794
:1043F0006FF01500704700200870704706230B709F
:104400000020704707230B700020704705230B70B6
:10441000002070470600F000060010000200400077
:1044200028B1012801D10348704700207047024895
:10443000704700BF748A00008C8A0000F0B585B018
:104440000E46194643681B7B06F01F0545EA4315D7
:10445000B2F5005F22D0074614460023029303936F
:10446000104603F040FD8DF808007B689968F14024
:1044700011F0010F02D1B4F5A03F14D0002302AA1D
:104480001946284601F0F8F91B4B984231D1012119
:10449000284601F0C9FB002005B0F0BD284601F018
:1044A00027FC0020F8E705F01F036A09012A14D051
:1044B0004FF0A04203F5E07352F8233013F0010FE0
:1044C000DCD10DF10701284601F052FB0B4B98425D
:1044D00005D00DF107030393D0E7094AEAE70DF190
:1044E000070001F099FB044B9842F2D06FF00B00EB
:1044F000D2E76FF00400CFE70000AD0B0400AD0B76
:104500000003005030B583B004460DF1070101F0FF
:104510002FFB0546204601F01BFC0B4B98420FD1A8
:104520009D4205D0084B984207D1002003B030BD12
:104530009DF8070001F068FBF4E76FF00400F5E771
:104540006FF00400F2E700BF0000AD0B2DE9F0436F
:1045500087B0D0F8048098F80C3001F01F0545EAC8
:104560004315002A44D00C461746002603960496AD
:104570000DF11701204601F0FBFA8146334603AAEC
:104580003146284601F078F9304B98425BD1994585
:1045900036D017F4007F43D00DF103013846FFF702
:1045A000F9FE064640BB9DF803308DF8043017F441
:1045B000807F0CBF012300238DF80530384603F0BF
:1045C0005FFC8DF8060017F4006F1ED0D8F8043099
:1045D000012101FA04F4C3F80845002201A9284684
:1045E00001F000FA194B984206D06FF0150603E06F
:1045F0002846FFF787FF0646304607B0BDE8F08340
:104600009DF8170001F000FBC3E717F4806FE4D0BA
:10461000D8F80420012303FA04F4C2F80C45DCE7BF
:10462000384603F02DFC8DF8080000231A4602A935
:10463000284601F021F9054B984201D10026DBE71D
:104640006FF01506D8E76FF01506D5E70000AD0B43
:1046500008B501F0CFFA08B1002008BD01F0A0FABA
:10466000084B98420AD10021074801F07BFA00224A
:1046700005210620FFF70AF90020EEE76FF004009D
:10468000EBE700BF0000AD0B777F000010B443687C
:1046900000297ED1DA68B2F1FF3F17D002F01F0186
:1046A0005209012A65D04FF0A04001228A40C0F88B
:1046B0000825DA6802F01F015209012A5BD04FF089
:1046C000A04001F5E072032140F822101A69B2F10E
:1046D000FF3F0FD0197F00294FD0032002F01F01A8
:1046E0005209012A4BD04FF0A044800001F5E0723E
:1046F00044F822005A69B2F1FF3F17D002F01F01BF
:104700005209012A3DD04FF0A04001228A40C0F852
:1047100008255A6902F01F015209012A33D04FF0CF
:10472000A04001F5E072032140F822109A69B2F12D
:10473000FF3F0ED0597F41B3032002F01F01520901
:10474000012A24D04FF0A044800001F5E07244F823
:1047500022001A68D8681969C2F80C05C2F8141545
:104760001A6859699B69C2F80815C2F8103510BC5F
:1047700070472C4899E72B48A3E70020AEE7294C67
:10478000B3E72848C1E72748CBE70020D5E7254C09
:10479000DAE7DA68B2F1FF3F0BD002F01F015209ED
:1047A000012A37D04FF0A04001F5E072022140F815
:1047B00022101A69B2F1FF3F0BD002F01F0152091B
:1047C000012A29D04FF0A04001F5E072022140F803
:1047D00022105A69B2F1FF3F0BD002F01F015209BB
:1047E000012A1BD04FF0A04001F5E072022140F8F1
:1047F00022109A69B2F1FF3FABD002F01F015209BB
:10480000012A0DD04FF0A04001F5E072022140F8DE
:1048100022109EE70348C7E70248D5E70148E3E7CF
:104820000048F1E70003005043681A68B1F5164FDD
:104830006FD03AD8B1F5165F6ED00AD9B1F5E14F15
:1048400075D024D947F6122399422BD14FF4000397
:1048500013E0B1F5966F61D007D9B1F5166F63D04B
:10486000B1F5965F10D13C4B07E0B1F5967F58D07B
:10487000B1F5167F05D14FF41C33C2F82435002062
:1048800070476FF0150070476FF015007047B1F575
:10489000615F4ED0B1F5964F01D1304BEDE76FF02F
:1048A000150070476FF015007047B1F5613F42D0B9
:1048B00009D9B1F5612F46D01FD9294B994248D16A
:1048C0004FF08053D9E7B1F5963F37D005D9B1F510
:1048D000E13F0FD14FF0EB73CFE74DF6C023994284
:1048E0002ED0B1F5614F02D14FF46B03C5E76FF0E5
:1048F000150070476FF0150070471A4B994225D08C
:10490000B1F5E12F02D14FF0E863B6E76FF0150083
:1049100070474FF41D03B0E7134BAEE74FF49E23EF
:10492000ABE74FF4A033A8E74FF41D23A5E70F4BE7
:10493000A3E70F4BA1E74FF06C739EE70D4B9CE78D
:104940004FF4650399E74FF0706396E74FF080638B
:1049500093E76FF01500704700B0130000A04E0001
:1049600040420F0090D003000050270000C07500A7
:1049700000F03A0000903A012DE9F04105460F465B
:10498000D0F8108003F0E7FD20B9164B1B78ABB1CF
:10499000002300E001239BB14FF02003EFF31184CB
:1049A00083F31288BFF36F8F2646284603F0ADFBD2
:1049B00050B984F31188BFF36F8FEDE70123EAE765
:1049C000284603F0F1FB0646414601F8107F01221C
:1049D000284603F0B4FB86F31188BFF36F8FBDE860
:1049E000F08100BFE90E002038B504460D4601F104
:1049F000120001F001FA0C4B984211D1AB7C04F586
:104A000090710C34094AA23342F8331002EBC3030D
:104A10005C60A97C01238B40C2F80435002038BDBE
:104A20006FF00400FBE700BF0000AD0B00F0014099
:104A300021F07F4100F5A870014B43F8201070472A
:104A40000010014000F5A870014B53F8200070479A
:104A5000001001404FF480338340024AC2F84433CF
:104A6000704700BF001001404FF480338340024A7A
:104A7000C2F84833704700BF00100140014BD3F823
:104A8000040570470010014010B501238340DC434A
:104A9000104ABFF35B8F52E8001F01EA040C42E8A2
:104AA00000CEBEF1000FF6D1BFF35B8F4FF4803222
:104AB00002FA00F002F1804202F58052C2F80803C7
:104AC000BFF35F8FBFF36F8F0B4214BF0120002035
:104AD00010BD00BFC409002070B5044603F007FCF8
:104AE00005464FF48033A340174AD2F804231342FB
:104AF00005D10026284603F003FC304670BD012393
:104B0000A340DB43114ABFF35B8F52E8001F01EA69
:104B1000030042E80006002EF7D1BFF35B8F59B9BE
:104B200004F150039B009BB203F1804303F58833EB
:104B30001B6813B1012300E001231E46002BD9D0CE
:104B4000204603F0C5FBD5E700100140C009002056
:104B500001B9704701238340114ABFF35B8F52E8CC
:104B6000001F194342E8001CBCF1000FF7D1BFF34E
:104B70005B8F4FF4803383400A4AC2F80433BFF39B
:104B80005B8F094B1B68BFF35B8F23FA00F010F0BB
:104B9000010FDED0054B4FF40032C3F80021D8E7F7
:104BA000C409002000100140C009002000E100E01D
:104BB000F8B5074614461E461046194603F094FB06
:104BC0000546154B1A68A01A1C605E60A5F5001317
:104BD000B3F5400F08D3002402F0E0FA3846FFF79F
:104BE00031FFA8420CD0F8BD0C4B19680B0A0A061D
:104BF000521943F100030A49C1E900230124EBE7FC
:104C00001CB13846FFF726FFEDE74FF400013846A8
:104C1000FFF70EFFF5E700BFB8010020C80900202C
:104C2000A001002038B50D4B1B681D0A1C06BFF300
:104C30005F8FFFF723FF0346201845F10001B3F50E
:104C4000801F0AD2064BD3E90023994208BF904245
:104C500003D210F1807041F1000138BDC809002075
:104C6000A00100202DE9F843064614461D461046D3
:104C7000194603F039FB0746FFF7D4FFA94208BFE6
:104C8000A0421ED2B4EB000865EB01094FF0807220
:104C900000234B4508BF42452ED3194B03EB0613A7
:104CA000D3E90223AB4208BFA24218D039463046AE
:104CB00003F02BFB394603F007FB241845F10005F0
:104CC0000DE00123B3400F4ABFF35B8F52E8001F92
:104CD000194342E800100028F8D1BFF35B8F084B5E
:104CE000320103EB0616C6E9024508999950099B63
:104CF00073600020BDE8F8836FF01500FAE700BF8D
:104D0000A8010020C009002030B583B000231E4A4E
:104D1000C2F80835002B25DD1B4C0225C4F80453CE
:104D20001A4B4FF40032C3F88021002201211120D8
:104D3000FEF7ACFD1120FEF78BFD0123144A136032
:104D40002360144A136000240194134B0093134A08
:104D50000023204603F014FB2846FFF7BDFA204647
:104D600003B030BD0E4A02EB03124FF0FF304FF09C
:104D7000FF31C2E902014FF480329A400249C1F882
:104D800004230133C6E700BF0010014000E100E04A
:104D900008100140C4090020B14B0000FFFF7F0054
:104DA000A80100202DE9F04782B00446FFF794FEE9
:104DB00010B902B0BDE8F087FFF734FF06460F4692
:104DC00003F095FA8246134B03EB0413D3E90289EF
:104DD0004F4508BF46450BD20026504603F090FAD7
:104DE000002EE6D0009542464B462046B047E0E70D
:104DF000084A230102EB0411D6584D680020D05018
:104E00004FF0FF324FF0FF33C1E902232046FFF796
:104E10002BFEE2E7A801002010B50D4BD3F80433B8
:104E200013F0020F0AD00B4B1B683BB1094B002259
:104E30001A601B68084A1368013313600024002CB1
:104E400000DD10BD2046FFF7ADFF0134F7E700BFDE
:104E50000010014004110140C809002010B582B0C3
:104E6000B0F1FF3F07D0441E002C07DD114B9C42E0
:104E700005DD114C03E000F50000F4E70024FFF726
:104E8000D1FE0E4BD3E90023801AB0F5000F00D3FA
:104E9000002404440134B4F5000F00D3064C002074
:104EA000019007490091121943F1000303F068FAD9
:104EB00002B010BDFEFF7F00FFFF7F00B8010020A1
:104EC000B14B000008B5FFF7ADFE024B1B68C01ADE
:104ED00008BD00BFB8010020034B1B68082B01D0A0
:104EE000002070470120704730010010034B1B6801
:104EF000082B01D0002070470120704730010010BE
:104F0000084B1A6804331B68082A01D00020704738
:104F1000002B04D8DFE803F00100012070470020D7
:104F2000704700BF30010010084B1A6804331B683B
:104F3000082A01D000207047002B04D8DFE803F0D6
:104F40000100012070470020704700BF30010010B1
:104F5000084B1A6804331B68082A01D000207047E8
:104F6000002B04D8DFE803F0010001207047002087
:104F7000704700BF30010010084B1A6804331B68EB
:104F8000082A01D000207047002B04D8DFE803F086
:104F90000100012070470020704700BF3001001061
:104FA000034B1B68082B01D000207047012070477D
:104FB00030010010064B1B68064A1268082B01D00E
:104FC00000207047042A01D8002070470120704754
:104FD0003001001034010010024BD3F80034002BD4
:104FE000FAD0704700E0014008B5034BC3F8040550
:104FF000FFF7F2FF08BD00BF00E00140014B024A8D
:105000001A607047500000200090D00338B5FFF7B9
:1050100063FF40B14FF080430022C3F80C21C3F876
:105020001021C3F83825FFF761FF002846D04FF064
:105030008052D2F80414564BC3F82015D2F8081445
:10504000C3F82415D2F80C14C3F82815D2F810149C
:10505000C3F82C15D2F81414C3F83015D2F818146C
:10506000C3F83415D2F81C14C3F84015D2F8201434
:10507000C3F84415D2F82414C3F84815D2F82814FC
:10508000C3F84C15D2F82C14C3F85015D2F83014CC
:10509000C3F85415D2F83414C3F86015D2F8381494
:1050A000C3F86415D2F83C14C3F86815D2F840145C
:1050B000C3F86C15D2F84424C3F87025FFF720FF1D
:1050C00010B1344B344A1A60FFF72EFF18B1334B3E
:1050D000FB22C3F81825FFF73BFF48B130490B68A6
:1050E00023F00F032F4A126802F00F0213430B60E4
:1050F000FFF742FF18B12C4B4FF400721A60FFF714
:105100004FFF60B14FF08043D3F8003413F0010F2C
:1051100005D04FF080436FF00102C3F80024FFF781
:1051200049FF38B14FF01023D3F808224FF08043E5
:10513000C3F858254FF01023D3F80032002B08DBBA
:105140004FF01023D3F80432002B02DBFFF756FF99
:1051500038BD0120FFF748FF4FF010241225C4F896
:105160000052FFF739FFC4F80452FFF735FF002063
:10517000FFF73AFFBFF34F8F0C49CA6802F4E062B1
:105180000B4B1343CB60BFF34F8F00BFFDE700BF56
:1051900000C000408C5600404881030000F00040F1
:1051A000E40E0040580200104096024000ED00E07E
:1051B0000400FA0530B40468B4FA84F3D3F11F0391
:1051C00015D401229A4024EA0202BFF35B8F50E813
:1051D000005FA54204D140E8002CBCF1000FF6D1DD
:1051E000BFF35B8FE7D10B70024830BC70470248B9
:1051F000FBE700BF0000AD0B0200AD0B10B403686D
:105200000C4623FA01F111F0010F14D102680123B9
:10521000A3401343BFF35B8F50E8001F914204D1BA
:1052200040E8003CBCF1000FF6D1BFF35B8FEDD13D
:10523000024810BC70470248FBE700BF0000AD0BFE
:105240000400AD0B064B1B793BB9054B18600122DE
:105250001A7100225A71034870470348704700BF13
:10526000CC0900200000AD0B0C00AD0B10B10128E3
:1052700025D070474FF08042D2F8183403F0030372
:10528000D2F8182412F4803F11D14FF0804300224D
:10529000C3F818250F4B00221A601B684FF080439B
:1052A0000222C3F80423083301221A607047012B3D
:1052B000EBD14FF080430122C3F81825EAE7064BF3
:1052C00000221A601B684FF080430122C3F80423B8
:1052D0001A607047040100400001004030B583B0FF
:1052E000044618B1012813D003B030BD4FF08043FD
:1052F0000222C3F8082303F5827300221A601B6898
:10530000394B01221A60012C0FD042F2107552E085
:1053100001234FF08042C2F8083302F58072002169
:1053200011601268314A1360EDE701238DF80730F0
:1053300042F2107518E04FF08042D2F8183403F0B2
:105340000303CDF80730D2F8183413F4803F20D18E
:105350000023002B42D09DF80730012B3ED10120C5
:1053600003F03CF8013D39D0002CE4D0012C01D0F1
:105370000023EEE74FF08042D2F80C3403F0010333
:105380008DF80730D2F80C3413F4803F03D100239A
:10539000DFE70123DDE70123DBE74FF08043D3F8AC
:1053A000183413F4803F15D10023BBB1012003F062
:1053B00015F8013D12D0002CEFD0012C01D00023B4
:1053C000F3E74FF08043D3F80C3413F4803F03D15C
:1053D0000023EAE70123E8E70123E6E7012C83D174
:1053E000034B00225A717FE70C000040040000408C
:1053F000CC09002008B51B4B1B6883B1194B002258
:105400001A601B684FF080430122C3F80823164B33
:105410005B7923B9144B5A711B6800209847134BD2
:105420001B689BB1114B00221A601B684FF0804330
:10543000D3F81824D3F8183412F0030F07D101233E
:105440004FF08042C2F818350832136008BD4FF0A3
:1054500080430222C3F80823034B1B6801209847AE
:10546000F4E700BF00010040CC0900200401004027
:105470000830034B33F8100000F00100704700BF04
:10548000540000200830034B33F81000C0F34010E4
:10549000704700BF540000200830044B33F8100060
:1054A00010F01C0018BF0120704700BF54000020FE
:1054B0000830034B33F81000C0F34000704700BFC2
:1054C000540000200830024B33F81000400B7047A6
:1054D00054000020002204E04FF0FF3383420FD03D
:1054E00001322F2A0AD802F10803064931F8133095
:1054F00013F4807FF0D0C3F34323EFE7002070471D
:105500000120704754000020002313B14FF0FF30FA
:105510007047074A52F83320824201D00133F4E742
:10552000034A02EBC30252688A42F7D11846704719
:10553000540000200830064B33F8100010F4807F30
:1055400004D0C0F3432003EBC00070470020704735
:105550005400002070B504460D46FFF7EBFF20B164
:105560000668426829462046B047044B9B6823B131
:10557000024AD26829462046984770BD5400002050
:1055800070B504460D461646084602F04CFFD0B9E9
:10559000022E3ED0022004F01F02610901293AD0F8
:1055A0004FF0A04102F5E07251F8223023F440336D
:1055B00043EA004341F82230032D30D0022E2CD094
:1055C000032E31D070BD29462046FFF7C3FF04F0FB
:1055D0001F036409012C1AD04FF0A04103F5E072BB
:1055E00051F82220C2F301429642EBD103F5E07359
:1055F00051F8232022F4403241F8232051F823208F
:1056000022F4403242EA064641F82360DAE70849CC
:10561000E4E70320BFE70649C4E7012DD0D12946BE
:105620002046FFF797FFCDE7022DCBD1F7E700BF6C
:105630000003005010B483B00446124B93E80300FB
:1056400002AB03E90300204600230BE002AA02EBB1
:10565000830252F8082CD2F8201540F8041BC2F837
:1056600020150133012BF1D90023012B04D854F864
:1056700023202AB90133F8E7002003B010BC70479B
:105680000120FAE7B08C000000F108020E4B33F85D
:10569000123013F4807F16D010B5C3F343241046A4
:1056A00023F4F853084A22F810302046FFF712FF7F
:1056B00000B110BD0448002340F834302146743056
:1056C000FFF79CFDF5E770475400002010B5044635
:1056D000FFF7D8FE40B12046FFF7F4FE00F5A270B8
:1056E000064B002243F820202046FFF7CDFF083468
:1056F000034B002223F8142010BD00BF00600040BF
:105700005400002070B582B006460C461546FFF7DF
:10571000BBFF24B329462046FFF7F6FE031E13DB2A
:10572000104A42F8334002EBC3014D605B029BB26A
:1057300006F1080032F810100B4343F4807322F88E
:105740001030094802B070BD0DF107010748FFF79E
:1057500031FD054B9842F5D19DF80730E0E702484E
:10576000F0E700BF540000200000AD0BC80000208F
:1057700070B584B02C4A6B4692E8030083E80300BE
:10578000002302A80BE004AA02EB830252F8102CBB
:10579000D2F8201540F8041BC2F820150133012B64
:1057A000F1D93DE0214E05F5E07356F82320C2F310
:1057B0000142FFF7E5FE0123AB40C6F8203504ABFC
:1057C00003EB840353F8080CF8B190FAA0F0B0FA98
:1057D00080F000EB441000F10802154B33F8121072
:1057E000C1F38201C50800F0070202AE012303FAEB
:1057F00002F2735D23EA0203735500F01F054309AB
:10580000012BCFD04FF0A046CDE70134012CD6D9E3
:10581000084B00221A601B6802A8FFF70BFF08B1B3
:105820000024F3E704B070BDB08C0000000300500A
:10583000540000207C61004038B50446CCB194FA95
:10584000A4F3B3FA83F301229A4024EA0204094A3A
:1058500003F5A27352F82350C5F3052552F823002F
:10586000C0F3014002F0DDFD01462846FFF772FE5D
:10587000E4E738BD006000402DE9F84304461546D2
:105880001E4661B30F4602F0B6FD002840F0978037
:1058900004F01F026309012B42D04FF0A04002F533
:1058A000E07350F82330002F3CD00C2141F003016D
:1058B00023EA0103002F37D0397889000B4302F522
:1058C000E07240F82230424A04F1080132F8113007
:1058D00023F002039BB243F0010322F81130B5B16B
:1058E00095F80080D5F804902046FFF7E1FDE8B177
:1058F000B9F1000F65D1364B04F1080233F81200FC
:1059000020F01C0080B240EA880023F81200002E2C
:105910005BD0726831682046FFF7F4FEBDE8F8837B
:105920002C48BCE70021C1E70021C7E7284B04F160
:10593000080233F8127027F02007FF04FF0C23F849
:105940001270B9F1000FD6D0B8F1030F3BD86B68D5
:105950001D78B8F1000F06D105F5A2751E4B002287
:1059600043F82520C7E7404602F05CFD1A4B05F5D9
:10597000A27253F8221021F0030143F8221053F8C9
:10598000221021F44F3121F4407143F8221053F8D2
:1059900022C0210201F47C51000400F44030014394
:1059A0004CEA010143F822106D03ADB204F1080383
:1059B0002F4347F02007064A22F813709BE7074859
:1059C000ACE70648AAE70548A8E70548A6E700BFF0
:1059D0005400002000030050006000400400AD0BA4
:1059E0000000AD0BF8B504461546002952D00E460E
:1059F00002F010FD28B12046FFF744FD002840F0DA
:105A00009D802046FFF748FD18B17378012B00F008
:105A1000978006F1010CB71C04F01F026309012BEB
:105A20007CD04FF0A04102F5E07351F82300BCF1A7
:105A3000000F75D0022343F00103002F72D04FF006
:105A40000C0E43EA0E03002E6FD04FF4E06E43EAD3
:105A50000E0320EA0300BCF1000F69D073785B00ED
:105A600043F00103002F65D0B778BF003B43002E01
:105A700062D0367836023343034302F5E07241F8D0
:105A80002230334A04F1080132F8113043F00303A5
:105A900022F81130002D55D0204602F0BBFC002822
:105AA00052D12A7802F5A2712A4B43F821002849E5
:105AB00004F1080031F8103023F02003DB04DB0C84
:105AC00021F810306978002940D095F802C0214DA6
:105AD00002F5A27655F8260020F4991020F4F8502B
